{
  "contractName": "ContractIds",
  "abi": [
    {
      "constant": true,
      "inputs": [],
      "name": "BANCOR_CONVERTER_UPGRADER",
      "outputs": [
        {
          "name": "",
          "type": "bytes32"
        }
      ],
      "payable": false,
      "stateMutability": "view",
      "type": "function"
    },
    {
      "constant": true,
      "inputs": [],
      "name": "BNT_TOKEN",
      "outputs": [
        {
          "name": "",
          "type": "bytes32"
        }
      ],
      "payable": false,
      "stateMutability": "view",
      "type": "function"
    },
    {
      "constant": true,
      "inputs": [],
      "name": "CONTRACT_REGISTRY",
      "outputs": [
        {
          "name": "",
          "type": "bytes32"
        }
      ],
      "payable": false,
      "stateMutability": "view",
      "type": "function"
    },
    {
      "constant": true,
      "inputs": [],
      "name": "BANCOR_CONVERTER_FACTORY",
      "outputs": [
        {
          "name": "",
          "type": "bytes32"
        }
      ],
      "payable": false,
      "stateMutability": "view",
      "type": "function"
    },
    {
      "constant": true,
      "inputs": [],
      "name": "BNT_CONVERTER",
      "outputs": [
        {
          "name": "",
          "type": "bytes32"
        }
      ],
      "payable": false,
      "stateMutability": "view",
      "type": "function"
    },
    {
      "constant": true,
      "inputs": [],
      "name": "BANCOR_FORMULA",
      "outputs": [
        {
          "name": "",
          "type": "bytes32"
        }
      ],
      "payable": false,
      "stateMutability": "view",
      "type": "function"
    },
    {
      "constant": true,
      "inputs": [],
      "name": "CONTRACT_FEATURES",
      "outputs": [
        {
          "name": "",
          "type": "bytes32"
        }
      ],
      "payable": false,
      "stateMutability": "view",
      "type": "function"
    },
    {
      "constant": true,
      "inputs": [],
      "name": "BANCOR_NETWORK",
      "outputs": [
        {
          "name": "",
          "type": "bytes32"
        }
      ],
      "payable": false,
      "stateMutability": "view",
      "type": "function"
    },
    {
      "constant": true,
      "inputs": [],
      "name": "BANCOR_GAS_PRICE_LIMIT",
      "outputs": [
        {
          "name": "",
          "type": "bytes32"
        }
      ],
      "payable": false,
      "stateMutability": "view",
      "type": "function"
    },
    {
      "constant": true,
      "inputs": [],
      "name": "BANCOR_X",
      "outputs": [
        {
          "name": "",
          "type": "bytes32"
        }
      ],
      "payable": false,
      "stateMutability": "view",
      "type": "function"
    }
  ],
  "bytecode": "0x608060405234801561001057600080fd5b5061043b806100206000396000f3006080604052600436106100a4576000357c0100000000000000000000000000000000000000000000000000000000900463ffffffff1680630c87355e146100a95780631d000b61146100dc57806325f9bfef1461010f5780635a46f06c1461014257806362614ae6146101755780636d7bd3fc146101a857806383315b6e146101db5780639232494e1461020e5780639249993a14610241578063c4a8598e14610274575b600080fd5b3480156100b557600080fd5b506100be6102a7565b60405180826000191660001916815260200191505060405180910390f35b3480156100e857600080fd5b506100f16102cb565b60405180826000191660001916815260200191505060405180910390f35b34801561011b57600080fd5b506101246102ef565b60405180826000191660001916815260200191505060405180910390f35b34801561014e57600080fd5b50610157610313565b60405180826000191660001916815260200191505060405180910390f35b34801561018157600080fd5b5061018a610337565b60405180826000191660001916815260200191505060405180910390f35b3480156101b457600080fd5b506101bd61035b565b60405180826000191660001916815260200191505060405180910390f35b3480156101e757600080fd5b506101f061037f565b60405180826000191660001916815260200191505060405180910390f35b34801561021a57600080fd5b506102236103a3565b60405180826000191660001916815260200191505060405180910390f35b34801561024d57600080fd5b506102566103c7565b60405180826000191660001916815260200191505060405180910390f35b34801561028057600080fd5b506102896103eb565b60405180826000191660001916815260200191505060405180910390f35b7f42616e636f72436f6e766572746572557067726164657200000000000000000081565b7f424e54546f6b656e00000000000000000000000000000000000000000000000081565b7f436f6e747261637452656769737472790000000000000000000000000000000081565b7f42616e636f72436f6e766572746572466163746f72790000000000000000000081565b7f424e54436f6e766572746572000000000000000000000000000000000000000081565b7f42616e636f72466f726d756c610000000000000000000000000000000000000081565b7f436f6e747261637446656174757265730000000000000000000000000000000081565b7f42616e636f724e6574776f726b0000000000000000000000000000000000000081565b7f42616e636f7247617350726963654c696d69740000000000000000000000000081565b7f42616e636f725800000000000000000000000000000000000000000000000000815600a165627a7a72305820fdec63d3cc36dfb5e7b1c9e3dc3cc5c28759ce88e646f8c3efac42dd715472880029",
  "source": "pragma solidity ^0.4.24;\n\n/**\n    Id definitions for bancor contracts\n\n    Can be used in conjunction with the contract registry to get contract addresses\n*/\ncontract ContractIds {\n    // generic\n    bytes32 public constant CONTRACT_FEATURES = \"ContractFeatures\";\n    bytes32 public constant CONTRACT_REGISTRY = \"ContractRegistry\";\n\n    // bancor logic\n    bytes32 public constant BANCOR_NETWORK = \"BancorNetwork\";\n    bytes32 public constant BANCOR_FORMULA = \"BancorFormula\";\n    bytes32 public constant BANCOR_GAS_PRICE_LIMIT = \"BancorGasPriceLimit\";\n    bytes32 public constant BANCOR_CONVERTER_UPGRADER = \"BancorConverterUpgrader\";\n    bytes32 public constant BANCOR_CONVERTER_FACTORY = \"BancorConverterFactory\";\n\n    // Ids of BNT converter and BNT token\n    bytes32 public constant BNT_TOKEN = \"BNTToken\";\n    bytes32 public constant BNT_CONVERTER = \"BNTConverter\";\n\n    // Id of BancorX contract\n    bytes32 public constant BANCOR_X = \"BancorX\";\n}\n",
  "sourcePath": "bancor-contracts\\solidity\\contracts\\ContractIds.sol",
  "compiler": {
    "name": "solc",
    "version": "0.4.24+commit.e67f0147.Emscripten.clang"
  },
  "schemaVersion": "2.0.1",
  "updatedAt": "2018-10-28T11:14:34.131Z"
}