{
  "contractName": "TokenConverter",
  "abi": [
    {
      "inputs": [],
      "payable": false,
      "stateMutability": "nonpayable",
      "type": "constructor"
    },
    {
      "constant": false,
      "inputs": [
        {
          "name": "_token",
          "type": "address"
        },
        {
          "name": "_amount",
          "type": "uint256"
        },
        {
          "name": "_minimumReturn",
          "type": "uint256"
        }
      ],
      "name": "convertTokenToMyBit",
      "outputs": [],
      "payable": true,
      "stateMutability": "payable",
      "type": "function"
    }
  ],
  "bytecode": "0x608060405234801561001057600080fd5b5073f20b9e713a33f61fa38792d2afaf1cd30339126a6000806101000a81548173ffffffffffffffffffffffffffffffffffffffff021916908373ffffffffffffffffffffffffffffffffffffffff160217905550610cc9806100746000396000f300608060405260043610610041576000357c0100000000000000000000000000000000000000000000000000000000900463ffffffff1680631f0a3da614610046575b600080fd5b61008e600480360381019080803573ffffffffffffffffffffffffffffffffffffffff1690602001909291908035906020019092919080359060200190929190505050610090565b005b6000606060008060008060036040519080825280602002602001820160405280156100ca5781602001602082028038833980820191505090505b509450735d60d8d7ef6d37e16ebabc324de3be57f135e0bc935087925060009150600034141561048157600115156000809054906101000a900473ffffffffffffffffffffffffffffffffffffffff1673ffffffffffffffffffffffffffffffffffffffff16638077ccf78b6040518263ffffffff167c0100000000000000000000000000000000000000000000000000000000028152600401808273ffffffffffffffffffffffffffffffffffffffff1673ffffffffffffffffffffffffffffffffffffffff168152602001915050602060405180830381600087803b1580156101b457600080fd5b505af11580156101c8573d6000803e3d6000fd5b505050506040513d60208110156101de57600080fd5b81019080805190602001909291905050501515141515610266576040517f08c379a00000000000000000000000000000000000000000000000000000000081526004018080602001828103825260138152602001807f546f6b656e206e6f7420737570706f727465640000000000000000000000000081525060200191505060405180910390fd5b8895508573ffffffffffffffffffffffffffffffffffffffff166323b872dd3330866040518463ffffffff167c0100000000000000000000000000000000000000000000000000000000028152600401808473ffffffffffffffffffffffffffffffffffffffff1673ffffffffffffffffffffffffffffffffffffffff1681526020018373ffffffffffffffffffffffffffffffffffffffff1673ffffffffffffffffffffffffffffffffffffffff1681526020018281526020019350505050602060405180830381600087803b15801561034057600080fd5b505af1158015610354573d6000803e3d6000fd5b505050506040513d602081101561036a57600080fd5b8101908080519060200190929190505050508573ffffffffffffffffffffffffffffffffffffffff1663095ea7b36000809054906101000a900473ffffffffffffffffffffffffffffffffffffffff16856040518363ffffffff167c0100000000000000000000000000000000000000000000000000000000028152600401808373ffffffffffffffffffffffffffffffffffffffff1673ffffffffffffffffffffffffffffffffffffffff16815260200182815260200192505050602060405180830381600087803b15801561044057600080fd5b505af1158015610454573d6000803e3d6000fd5b505050506040513d602081101561046a57600080fd5b81019080805190602001909291905050505061049f565b73c0829421c1d260bd3cb3e0f06cfe2d52db2ce31595503492503491505b858560008151811015156104af57fe5b9060200190602002019073ffffffffffffffffffffffffffffffffffffffff16908173ffffffffffffffffffffffffffffffffffffffff1681525050838560018151811015156104fb57fe5b9060200190602002019073ffffffffffffffffffffffffffffffffffffffff16908173ffffffffffffffffffffffffffffffffffffffff16815250508385600281518110151561054757fe5b9060200190602002019073ffffffffffffffffffffffffffffffffffffffff16908173ffffffffffffffffffffffffffffffffffffffff16815250506000809054906101000a900473ffffffffffffffffffffffffffffffffffffffff1673ffffffffffffffffffffffffffffffffffffffff1663f3898a978387868b6040518563ffffffff167c01000000000000000000000000000000000000000000000000000000000281526004018080602001848152602001838152602001828103825285818151815260200191508051906020019060200280838360005b8381101561063e578082015181840152602081019050610623565b505050509050019450505050506020604051808303818588803b15801561066457600080fd5b505af1158015610678573d6000803e3d6000fd5b50505050506040513d602081101561068f57600080fd5b8101908080519060200190929190505050905086811015151561071a576040517f08c379a00000000000000000000000000000000000000000000000000000000081526004018080602001828103825260138152602001807f5472616e73616374696f6e206661696c65642e0000000000000000000000000081525060200191505060405180910390fd5b808473ffffffffffffffffffffffffffffffffffffffff166370a08231306040518263ffffffff167c0100000000000000000000000000000000000000000000000000000000028152600401808273ffffffffffffffffffffffffffffffffffffffff1673ffffffffffffffffffffffffffffffffffffffff168152602001915050602060405180830381600087803b1580156107b657600080fd5b505af11580156107ca573d6000803e3d6000fd5b505050506040513d60208110156107e057600080fd5b810190808051906020019092919050505014151561088c576040517f08c379a00000000000000000000000000000000000000000000000000000000081526004018080602001828103825260368152602001807f5472616e73616374696f6e206661696c6564207769746820646966666572656e81526020017f742072657475726e207468616e2065787065637465640000000000000000000081525060400191505060405180910390fd5b828673ffffffffffffffffffffffffffffffffffffffff166370a08231306040518263ffffffff167c0100000000000000000000000000000000000000000000000000000000028152600401808273ffffffffffffffffffffffffffffffffffffffff1673ffffffffffffffffffffffffffffffffffffffff168152602001915050602060405180830381600087803b15801561092857600080fd5b505af115801561093c573d6000803e3d6000fd5b505050506040513d602081101561095257600080fd5b8101908080519060200190929190505050111515156109ff576040517f08c379a00000000000000000000000000000000000000000000000000000000081526004018080602001828103825260258152602001807f5472616e73616374696f6e206661696c656420776974686f757420636f6e766581526020017f7273696f6e00000000000000000000000000000000000000000000000000000081525060400191505060405180910390fd5b8373ffffffffffffffffffffffffffffffffffffffff1663a9059cbb33836040518363ffffffff167c0100000000000000000000000000000000000000000000000000000000028152600401808373ffffffffffffffffffffffffffffffffffffffff1673ffffffffffffffffffffffffffffffffffffffff16815260200182815260200192505050602060405180830381600087803b158015610aa257600080fd5b505af1158015610ab6573d6000803e3d6000fd5b505050506040513d6020811015610acc57600080fd5b8101908080519060200190929190505050508573ffffffffffffffffffffffffffffffffffffffff1663a9059cbb338873ffffffffffffffffffffffffffffffffffffffff166370a08231306040518263ffffffff167c0100000000000000000000000000000000000000000000000000000000028152600401808273ffffffffffffffffffffffffffffffffffffffff1673ffffffffffffffffffffffffffffffffffffffff168152602001915050602060405180830381600087803b158015610b9657600080fd5b505af1158015610baa573d6000803e3d6000fd5b505050506040513d6020811015610bc057600080fd5b81019080805190602001909291905050506040518363ffffffff167c0100000000000000000000000000000000000000000000000000000000028152600401808373ffffffffffffffffffffffffffffffffffffffff1673ffffffffffffffffffffffffffffffffffffffff16815260200182815260200192505050602060405180830381600087803b158015610c5657600080fd5b505af1158015610c6a573d6000803e3d6000fd5b505050506040513d6020811015610c8057600080fd5b8101908080519060200190929190505050505050505050505050505600a165627a7a72305820ab1cca225d63ee34a685076cf82d4d45e76fe7e1bdec97281ab47f6b5b7aa6e80029",
  "source": "pragma solidity 0.4.24;\r\n\r\nimport \"bancor-contracts/solidity/contracts/BancorNetwork.sol\";\r\nimport \"bancor-contracts/solidity/contracts/token/EtherToken.sol\";\r\nimport \"bancor-contracts/solidity/contracts/token/interfaces/IERC20Token.sol\";\r\nimport \"bancor-contracts/solidity/contracts/token/SmartToken.sol\";\r\n\r\n\r\n///@title A contract for converting any token into MYB (using Bancor's API)\r\n///@author Vlad Silviu Farcas\r\ncontract TokenConverter {\r\n\r\n    BancorNetwork bancorNetwork;\r\n\r\n    ///@param _string the string to convert into bytes32\r\n    function stringToBytes32(string memory _string) private pure returns (bytes32) {\r\n        bytes32 result;\r\n        assembly {\r\n            result := mload(add(_string,32))\r\n        }\r\n        return result;\r\n    }\r\n\r\n    ///@notice initialise addresses needed for conversion\r\n    constructor() {\r\n        bancorNetwork = BancorNetwork(0xF20b9e713A33F61fA38792d2aFaF1cD30339126A);\r\n    }\r\n\r\n    ///@notice convert some tokens\r\n    ///@param _token the contract of the token that is about to be converted\r\n    ///@param _amount the amount of _token that is about to be converted\r\n    ///@param _minimumReturn the minimum return of MyBit token that is about to be received\r\n    function convertTokenToMyBit(\r\n        address _token, \r\n        uint _amount, \r\n        uint _minimumReturn\r\n        ) external payable {\r\n        IERC20Token token;\r\n        IERC20Token[] memory path = new IERC20Token[](3);\r\n        SmartToken myBit = SmartToken(0x5d60d8d7eF6d37E16EBABc324de3bE57f135e0BC); \r\n        uint amount = _amount;\r\n        uint value = 0;\r\n        if (msg.value == 0){\r\n            require(bancorNetwork.etherTokens(_token) == true, \"Token not supported\");\r\n            token = SmartToken(_token);\r\n            token.transferFrom(msg.sender, this, amount);\r\n            token.approve(bancorNetwork, amount); \r\n        } else {\r\n            token = EtherToken(0xc0829421C1d260BD3cB3E0F06cfE2D52db2cE315);\r\n            amount = msg.value;\r\n            value = msg.value;\r\n        }\r\n        path[0] = token;\r\n        path[1] = myBit;\r\n        path[2] = myBit;\r\n        uint convertedValue = bancorNetwork.convert.value(value)(\r\n            path,\r\n            amount,\r\n            _minimumReturn\r\n        );\r\n        require (convertedValue >= _minimumReturn, \"Transaction failed.\");\r\n        require (myBit.balanceOf(this) == convertedValue, \"Transaction failed with different return than expected\");\r\n        require (token.balanceOf(this) <= amount, \"Transaction failed without conversion\");\r\n        myBit.transfer(msg.sender, convertedValue);\r\n        token.transfer(msg.sender, token.balanceOf(this));\r\n    }\r\n\r\n}",
  "sourcePath": "D:\\gitcoin_work\\token-to-mybit-converter\\contracts\\TokenConverter.sol",
  "compiler": {
    "name": "solc",
    "version": "0.4.24+commit.e67f0147.Emscripten.clang"
  },
  "schemaVersion": "2.0.1",
  "updatedAt": "2018-10-28T10:14:51.533Z"
}