{
  "contractName": "TokenConverter",
  "abi": [
    {
      "inputs": [],
      "payable": false,
      "stateMutability": "nonpayable",
      "type": "constructor"
    },
    {
      "constant": false,
      "inputs": [
        {
          "name": "_token",
          "type": "address"
        },
        {
          "name": "_amount",
          "type": "uint256"
        },
        {
          "name": "_minimumReturn",
          "type": "uint256"
        }
      ],
      "name": "convertTokenToMyBit",
      "outputs": [],
      "payable": true,
      "stateMutability": "payable",
      "type": "function"
    }
  ],
  "bytecode": "0x608060405234801561001057600080fd5b5073f20b9e713a33f61fa38792d2afaf1cd30339126a6000806101000a81548173ffffffffffffffffffffffffffffffffffffffff021916908373ffffffffffffffffffffffffffffffffffffffff160217905550610d2c806100746000396000f300608060405260043610610041576000357c0100000000000000000000000000000000000000000000000000000000900463ffffffff1680631f0a3da614610046575b600080fd5b61008e600480360381019080803573ffffffffffffffffffffffffffffffffffffffff1690602001909291908035906020019092919080359060200190929190505050610090565b005b6000606060008060008060008060056040519080825280602002602001820160405280156100cd5781602001602082028038833980820191505090505b509650735d60d8d7ef6d37e16ebabc324de3be57f135e0bc9550731f573d6fb3f13d689ff844b4ce37794d79a7ff1c945089935060009250600034141561034a578a97508773ffffffffffffffffffffffffffffffffffffffff166323b872dd336000809054906101000a900473ffffffffffffffffffffffffffffffffffffffff16876040518463ffffffff167c0100000000000000000000000000000000000000000000000000000000028152600401808473ffffffffffffffffffffffffffffffffffffffff1673ffffffffffffffffffffffffffffffffffffffff1681526020018373ffffffffffffffffffffffffffffffffffffffff1673ffffffffffffffffffffffffffffffffffffffff1681526020018281526020019350505050602060405180830381600087803b15801561020957600080fd5b505af115801561021d573d6000803e3d6000fd5b505050506040513d602081101561023357600080fd5b8101908080519060200190929190505050508773ffffffffffffffffffffffffffffffffffffffff1663095ea7b36000809054906101000a900473ffffffffffffffffffffffffffffffffffffffff16866040518363ffffffff167c0100000000000000000000000000000000000000000000000000000000028152600401808373ffffffffffffffffffffffffffffffffffffffff1673ffffffffffffffffffffffffffffffffffffffff16815260200182815260200192505050602060405180830381600087803b15801561030957600080fd5b505af115801561031d573d6000803e3d6000fd5b505050506040513d602081101561033357600080fd5b810190808051906020019092919050505050610368565b73c0829421c1d260bd3cb3e0f06cfe2d52db2ce31597503493503492505b8787600081518110151561037857fe5b9060200190602002019073ffffffffffffffffffffffffffffffffffffffff16908173ffffffffffffffffffffffffffffffffffffffff1681525050848760018151811015156103c457fe5b9060200190602002019073ffffffffffffffffffffffffffffffffffffffff16908173ffffffffffffffffffffffffffffffffffffffff16815250508487600281518110151561041057fe5b9060200190602002019073ffffffffffffffffffffffffffffffffffffffff16908173ffffffffffffffffffffffffffffffffffffffff16815250508587600381518110151561045c57fe5b9060200190602002019073ffffffffffffffffffffffffffffffffffffffff16908173ffffffffffffffffffffffffffffffffffffffff1681525050858760048151811015156104a857fe5b9060200190602002019073ffffffffffffffffffffffffffffffffffffffff16908173ffffffffffffffffffffffffffffffffffffffff16815250508573ffffffffffffffffffffffffffffffffffffffff166370a08231306040518263ffffffff167c0100000000000000000000000000000000000000000000000000000000028152600401808273ffffffffffffffffffffffffffffffffffffffff1673ffffffffffffffffffffffffffffffffffffffff168152602001915050602060405180830381600087803b15801561057f57600080fd5b505af1158015610593573d6000803e3d6000fd5b505050506040513d60208110156105a957600080fd5b810190808051906020019092919050505091506000809054906101000a900473ffffffffffffffffffffffffffffffffffffffff1673ffffffffffffffffffffffffffffffffffffffff1663f3898a978489878d6040518563ffffffff167c01000000000000000000000000000000000000000000000000000000000281526004018080602001848152602001838152602001828103825285818151815260200191508051906020019060200280838360005b8381101561067757808201518184015260208101905061065c565b505050509050019450505050506020604051808303818588803b15801561069d57600080fd5b505af11580156106b1573d6000803e3d6000fd5b50505050506040513d60208110156106c857600080fd5b810190808051906020019092919050505090508082018673ffffffffffffffffffffffffffffffffffffffff166370a08231306040518263ffffffff167c0100000000000000000000000000000000000000000000000000000000028152600401808273ffffffffffffffffffffffffffffffffffffffff1673ffffffffffffffffffffffffffffffffffffffff168152602001915050602060405180830381600087803b15801561077957600080fd5b505af115801561078d573d6000803e3d6000fd5b505050506040513d60208110156107a357600080fd5b810190808051906020019092919050505014151561084f576040517f08c379a00000000000000000000000000000000000000000000000000000000081526004018080602001828103825260248152602001807f5472616e73616374696f6e206661696c656420776974682072657475726e206c81526020017f6f73732e0000000000000000000000000000000000000000000000000000000081525060400191505060405180910390fd5b8881101515156108ed576040517f08c379a00000000000000000000000000000000000000000000000000000000081526004018080602001828103825260378152602001807f5472616e73616374696f6e206661696c656420776974682072657475726e206281526020017f656c6f77206d696e696d756d207468726573686f6c642e00000000000000000081525060400191505060405180910390fd5b838873ffffffffffffffffffffffffffffffffffffffff166370a08231306040518263ffffffff167c0100000000000000000000000000000000000000000000000000000000028152600401808273ffffffffffffffffffffffffffffffffffffffff1673ffffffffffffffffffffffffffffffffffffffff168152602001915050602060405180830381600087803b15801561098957600080fd5b505af115801561099d573d6000803e3d6000fd5b505050506040513d60208110156109b357600080fd5b810190808051906020019092919050505011151515610a60576040517f08c379a00000000000000000000000000000000000000000000000000000000081526004018080602001828103825260268152602001807f5472616e73616374696f6e206661696c656420776974686f757420636f6e766581526020017f7273696f6e2e000000000000000000000000000000000000000000000000000081525060400191505060405180910390fd5b8573ffffffffffffffffffffffffffffffffffffffff1663a9059cbb33836040518363ffffffff167c0100000000000000000000000000000000000000000000000000000000028152600401808373ffffffffffffffffffffffffffffffffffffffff1673ffffffffffffffffffffffffffffffffffffffff16815260200182815260200192505050602060405180830381600087803b158015610b0357600080fd5b505af1158015610b17573d6000803e3d6000fd5b505050506040513d6020811015610b2d57600080fd5b8101908080519060200190929190505050508773ffffffffffffffffffffffffffffffffffffffff1663a9059cbb338a73ffffffffffffffffffffffffffffffffffffffff166370a08231306040518263ffffffff167c0100000000000000000000000000000000000000000000000000000000028152600401808273ffffffffffffffffffffffffffffffffffffffff1673ffffffffffffffffffffffffffffffffffffffff168152602001915050602060405180830381600087803b158015610bf757600080fd5b505af1158015610c0b573d6000803e3d6000fd5b505050506040513d6020811015610c2157600080fd5b81019080805190602001909291905050506040518363ffffffff167c0100000000000000000000000000000000000000000000000000000000028152600401808373ffffffffffffffffffffffffffffffffffffffff1673ffffffffffffffffffffffffffffffffffffffff16815260200182815260200192505050602060405180830381600087803b158015610cb757600080fd5b505af1158015610ccb573d6000803e3d6000fd5b505050506040513d6020811015610ce157600080fd5b81019080805190602001909291905050505050505050505050505050505600a165627a7a723058209a773d8604d5d9ef44e1d16b974dc7f507fcd04ad21d241ffdbb3e7c02a4933a0029",
  "source": "pragma solidity 0.4.24;\r\n\r\nimport \"bancor-contracts/solidity/contracts/IBancorNetwork.sol\";\r\nimport \"bancor-contracts/solidity/contracts/token/interfaces/IEtherToken.sol\";\r\nimport \"bancor-contracts/solidity/contracts/token/interfaces/IERC20Token.sol\";\r\nimport \"bancor-contracts/solidity/contracts/token/interfaces/ISmartToken.sol\";\r\n\r\n\r\n///@title A contract for converting any token into MYB (using Bancor's API)\r\n///@author Vlad Silviu Farcas\r\ncontract TokenConverter {\r\n\r\n    IBancorNetwork bancorNetwork;\r\n\r\n    ///@notice initialise addresses needed for conversion\r\n    constructor() {\r\n        bancorNetwork = IBancorNetwork(0xF20b9e713A33F61fA38792d2aFaF1cD30339126A);\r\n    }\r\n\r\n    ///@notice convert some tokens\r\n    ///@param _token the contract of the token that is about to be converted\r\n    ///@param _amount the amount of _token that is about to be converted\r\n    ///@param _minimumReturn the minimum return of MyBit token that is about to be received\r\n    function convertTokenToMyBit(\r\n        address _token, \r\n        uint _amount, \r\n        uint _minimumReturn\r\n        ) external payable {\r\n        IERC20Token token;\r\n        IERC20Token[] memory path = new IERC20Token[](5);\r\n        ISmartToken myBit = ISmartToken(0x5d60d8d7eF6d37E16EBABc324de3bE57f135e0BC); \r\n        ISmartToken bnt = ISmartToken(0x1F573D6Fb3F13d689FF844B4cE37794d79a7FF1C);\r\n        uint amount = _amount;\r\n        uint value = 0;\r\n        if (msg.value == 0){\r\n            token = ISmartToken(_token);\r\n            token.transferFrom(msg.sender, bancorNetwork, amount);\r\n            token.approve(bancorNetwork, amount); \r\n        } else {\r\n            token = IEtherToken(0xc0829421C1d260BD3cB3E0F06cfE2D52db2cE315);\r\n            amount = msg.value;\r\n            value = msg.value;\r\n        }\r\n        path[0] = token;\r\n        path[1] = bnt;\r\n        path[2] = bnt;\r\n        path[3] = myBit;\r\n        path[4] = myBit;\r\n        uint myBitBalanceBefore = myBit.balanceOf(this);\r\n        uint convertedValue = bancorNetwork.convert.value(value)(\r\n            path,\r\n            amount,\r\n            _minimumReturn\r\n        );\r\n        require(myBit.balanceOf(this) == myBitBalanceBefore + convertedValue, \"Transaction failed with return loss.\");\r\n        require (convertedValue >= _minimumReturn, \"Transaction failed with return below minimum threshold.\");\r\n        require (token.balanceOf(this) <= amount, \"Transaction failed without conversion.\");\r\n        myBit.transfer(msg.sender, convertedValue);\r\n        token.transfer(msg.sender, token.balanceOf(this));\r\n    }\r\n\r\n}",
  "sourcePath": "D:\\gitcoin_work\\token-to-mybit-converter\\contracts\\TokenConverter.sol",
  "compiler": {
    "name": "solc",
    "version": "0.4.24+commit.e67f0147.Emscripten.clang"
  },
  "schemaVersion": "2.0.1",
  "updatedAt": "2018-10-30T15:39:04.378Z"
}